:1000000000000020F5040000657B00006B7B000011
:10001000717B0000777B00007D7B0000000000000A
:100020000000000000000000000000006505000066
:10003000837B0000000000000B0600006B06000040
:100040005573000063730000717300007F7300003C
:100050008D7300009B730000A9730000B77300004C
:10006000C5730000D3730000E1730000EF7300005C
:10007000FD7300000B740000197400002774000069
:1000800035740000897B00008F7B0000957B0000A9
:100090009B7B0000A17B0000A77B0000AD7B0000E4
:1000A000B37B0000B97B0000BF7B0000C57B000074
:1000B000CB7B0000D17B0000D77B000043740000A5
:1000C000DD7B000051740000E37B00005F740000E2
:1000D000E97B00006D740000EF7B0000F57B000001
:1000E000FB7B0000017C0000077C00000D7C000011
:1000F000137C0000197C00001F7C0000257C0000A0
:1001000005050000050500000505000005050000C7
:100110002B7C0000317C0000377C00003D7C00001F
:10012000437C0000497C00004F7C0000557C0000AF
:100130005B7C0000617C0000677C00006D7C00003F
:10014000737C0000797C00007B7400007F7C0000E1
:1001500089740000857C00008B7C0000917C00008D
:10016000977C00009D7C0000A37C0000A97C00001F
:10017000AF7C0000B57C0000BB7C0000C17C0000AF
:10018000C77C00000505000005050000050500000E
:100190000505000005050000050500000505000037
:1001A0000505000005050000050500000505000027
:1001B0000505000005050000050500000505000017
:1001C0000505000005050000050500000505000007
:1003F000050500000505000005050000FFFFFFFFE3
:10040000FFFFFFFFFFFFFFFFFFFFFFFFFEFFFFFFFD
:1004400010B5054C237833B9044B13B10448AFF30E
:1004500000800123237010BDA80E002000000000C2
:100460001006010008B5034B1BB103490348AFF365
:10047000008008BD00000000AC0E00201006010046
:10048000154B002B08BF134B9D46A3F5803A002166
:100490008B460F461348144A121A0CF025FD0F4BD9
:1004A000002B00D098470E4B002B00D0984700201F
:1004B000002104000D000D48002802D00C480CF06B
:1004C000F1F90CF039FA2000290006F019FF0CF0C0
:1004D000F5F900BF00000800000000200000000047
:1004E00061350000A80E0020A4580020A5C8000017
:1004F000DDC8000072B608F009F807F0A1FF62B687
:10050000FFF7BEFFFFF7FEBF80F309887047EFF3E8
:1005100009807047684680F309885A480078C00708
:1005200014BF0220032080F314887047DFF858C1FD
:10053000EFF305831B0618BF6047EFF31483DB0757
:1005400008BF604700DF7047DFF840C1EFF3058365
:100550001B0618BF6047EFF31483DB0708BF604733
:1005600000DF7047EFF30980816911F8021CE1BBDD
:1005700090E80F1010B5E047BDE81040EFF3098C8C
:100580008CE80700424B93E80600914208BF704791
:1005900041B91EF0100F16D13E49086820F0010045
:1005A000086010E01EF0100F06BF2CED108A01202D
:1005B000002081F825002CE9F00FC1F828C00CB408
:1005C00009F0FCFB0CBC1A60D2F828C0BCE8F00FA4
:1005D00092F8250000280EBF6FF0020E6FF0120E89
:1005E000BCEC108A8CF30988704710B52A4A12684F
:1005F000914209D8294C54F8214090E80F10A047A7
:10060000EFF3098C8CE80F0010BD10B509F05AFB10
:10061000BDE810401E4B93E80600914208BF7047AA
:10062000EFF3098C1EF0100F06BF2CED108A01208D
:10063000002081F825002CE9F00FC1F828C00CB487
:1006400009F0BCFB0CBC1A60D2F828C0BCE8F00F63
:1006500092F8250000280EBF6FF0020E6FF0120E08
:10066000BCEC108A8CF30988704710B509F088FB40
:10067000FFF7CEBF10B509F081FB09F081FBFFF752
:10068000C7BF000048F500004996000065960000CD
:100690004058002034EF00E000000000FCFFFFFFA6
:1006A00081F0004102E000BF83F0004330B54FEA23
:1006B00041044FEA430594EA050F08BF90EA020F90
:1006C0001FBF54EA000C55EA020C7FEA645C7FEA23
:1006D000655C00F0E2804FEA5454D4EB5555B8BF46
:1006E0006D420CDD2C4480EA020281EA030382EAB7
:1006F000000083EA010180EA020281EA0303362D49
:1007000088BF30BD11F0004F4FEA01314FF4801C1B
:100710004CEA113102D0404261EB410113F0004F2D
:100720004FEA03334CEA133302D0524263EB4303E4
:1007300094EA050F00F0A780A4F10104D5F1200E82
:100740000DDB02FA0EFC22FA05F2801841F10001DD
:1007500003FA0EF2801843FA05F359410EE0A5F1B1
:1007600020050EF1200E012A03FA0EFC28BF4CF0E2
:10077000020C43FA05F3C01851EBE37101F0004598
:1007800007D54FF0000EDCF1000C7EEB00006EEBA5
:100790000101B1F5801F1BD3B1F5001F0CD349082F
:1007A0005FEA30004FEA3C0C04F101044FEA445286
:1007B00012F5800F80F09A80BCF1004F08BF5FEA0D
:1007C000500C50F1000041EB045141EA050130BDED
:1007D0005FEA4C0C404141EB010111F4801FA4F190
:1007E0000104E9D191F0000F04BF01460020B1FAE5
:1007F00081F308BF2033A3F10B03B3F120020CDA1D
:100800000C3208DD02F1140CC2F10C0201FA0CF0FA
:1008100021FA02F10CE002F11402D8BFC2F1200C5F
:1008200001FA02F120FA0CFCDCBF41EA0C01904015
:10083000E41AA2BF01EB0451294330BD6FEA04045E
:100840001F3C1CDA0C340EDC04F11404C4F1200249
:1008500020FA04F001FA02F340EA030021FA04F35B
:1008600045EA030130BDC4F10C04C4F1200220FAB2
:1008700002F001FA04F340EA0300294630BD21FAF0
:1008800004F0294630BD94F0000F83F4801306BFB6
:1008900081F480110134013D4EE77FEA645C18BFAA
:1008A0007FEA655C29D094EA050F08BF90EA020F41
:1008B00005D054EA000C04BF1946104630BD91EA39
:1008C000030F1EBF0021002030BD5FEA545C05D13C
:1008D0004000494128BF41F0004130BD14F580047B
:1008E0003CBF01F5801130BD01F0004545F0FE41EF
:1008F00041F470014FF0000030BD7FEA645C1ABF24
:10090000194610467FEA655C1CBF0B46024650EA5A
:10091000013406BF52EA033591EA030F41F4002186
:1009200030BD00BF90F0000F04BF0021704730B50C
:100930004FF4806404F132044FF000054FF00001E1
:1009400050E700BF90F0000F04BF0021704730B5A2
:100950004FF4806404F1320410F0004548BF404277
:100960004FF000013EE700BF42004FEAE2014FEACC
:1009700031014FEA02701FBF12F07F4393F07F4FA7
:1009800081F06051704732F07F4208BF704793F0AA
:100990007F4F04BF41F40021704730B54FF46074BD
:1009A00001F0004521F000411CE700BF50EA0102C0
:1009B00008BF704730B54FF000050AE050EA010269
:1009C00008BF704730B511F0004502D5404261EBD9
:1009D00041014FF4806404F132045FEA915C3FF41A
:1009E000D8AE4FF003025FEADC0C18BF03325FEAB7
:1009F000DC0C18BF033202EBDC02C2F1200300FA68
:100A000003FC20FA02F001FA03FE40EA0E0021FA8C
:100A100002F11444BDE600BF70B54FF0FF0C4CF47A
:100A2000E06C1CEA11541DBF1CEA135594EA0C0F2C
:100A300095EA0C0F00F0DEF82C4481EA030621EA67
:100A40004C5123EA4C5350EA013518BF52EA0335A2
:100A500041F4801143F4801338D0A0FB02CE4FF054
:100A60000005E1FB02E506F00042E0FB03E54FF084
:100A70000006E1FB03569CF0000F18BF4EF0010E7C
:100A8000A4F1FF04B6F5007F64F5407404D25FEA78
:100A90004E0E6D4146EB060642EAC62141EA55512B
:100AA0004FEAC52040EA5E504FEACE2EB4F1FD0C6D
:100AB00088BFBCF5E06F1ED8BEF1004F08BF5FEAEB
:100AC000500E50F1000041EB045170BD06F000469D
:100AD00046EA010140EA020081EA0301B4EB5C044A
:100AE000C2BFD4EB0C0541EA045170BD41F4801142
:100AF0004FF0000E013C00F3AB8014F1360FDEBF67
:100B0000002001F0004170BDC4F10004203C35DA42
:100B10000C341BDC04F11404C4F1200500FA05F3C5
:100B200020FA04F001FA05F240EA020001F0004266
:100B300021F0004110EBD37021FA04F642EB0601DC
:100B40005EEA430E08BF20EAD37070BDC4F10C0406
:100B5000C4F1200500FA04F320FA05F001FA04F2CA
:100B600040EA020001F0004110EBD37041F10001B6
:100B70005EEA430E08BF20EAD37070BDC4F12005C1
:100B800000FA05F24EEA020E20FA04F301FA05F229
:100B900043EA020321FA04F001F0004121FA04F2D1
:100BA00020EA020000EBD3705EEA430E08BF20EAA1
:100BB000D37070BD94F0000F0FD101F000464000DB
:100BC00041EB010111F4801F08BF013CF7D041EA5D
:100BD000060195F0000F18BF704703F00046520061
:100BE00043EB030313F4801F08BF013DF7D043EA32
:100BF0000603704794EA0C0F0CEA135518BF95EAE8
:100C00000C0F0CD050EA410618BF52EA4306D1D16E
:100C100081EA030101F000414FF0000070BD50EA8D
:100C2000410606BF1046194652EA430619D094EA17
:100C30000C0F02D150EA013613D195EA0C0F05D101
:100C400052EA03361CBF104619460AD181EA030155
:100C500001F0004141F0FE4141F470014FF000000D
:100C600070BD41F0FE4141F4780170BD70B54FF0A8
:100C7000FF0C4CF4E06C1CEA11541DBF1CEA135528
:100C800094EA0C0F95EA0C0F00F0A7F8A4EB05040A
:100C900081EA030E52EA03354FEA013100F0888001
:100CA0004FEA03334FF0805545EA131343EA1263CA
:100CB0004FEA022245EA111545EA10654FEA00267F
:100CC0000EF000419D4208BF964244F1FD0404F538
:100CD000407402D25B084FEA3202B61A65EB030594
:100CE0005B084FEA32024FF480104FF4002CB6EB51
:100CF000020E75EB030E22BFB61A754640EA0C00D1
:100D00005B084FEA3202B6EB020E75EB030E22BF10
:100D1000B61A754640EA5C005B084FEA3202B6EB51
:100D2000020E75EB030E22BFB61A754640EA9C0010
:100D30005B084FEA3202B6EB020E75EB030E22BFE0
:100D4000B61A754640EADC0055EA060E18D04FEA9E
:100D5000051545EA16754FEA06164FEAC30343EA3E
:100D600052734FEAC2025FEA1C1CC0D111F4801F0B
:100D70000BD141EA00014FF000004FF0004CB6E704
:100D800011F4801F04BF01430020B4F1FD0C88BFA3
:100D9000BCF5E06F3FF6AFAEB5EB030C04BFB6EBAE
:100DA000020C5FEA500C50F1000041EB045170BDA1
:100DB0000EF0004E4EEA113114EB5C04C2BFD4EBCE
:100DC0000C0541EA045170BD41F480114FF0000E52
:100DD000013C90E645EA060E8DE60CEA135594EACE
:100DE0000C0F08BF95EA0C0F3FF43BAF94EA0C0FD1
:100DF0000AD150EA01347FF434AF95EA0C0F7FF446
:100E000025AF104619462CE795EA0C0F06D152EA99
:100E100003353FF4FDAE1046194622E750EA41067D
:100E200018BF52EA43067FF4C5AE50EA41047FF48E
:100E30000DAF52EA43057FF4EBAE12E74FF0FF3CF3
:100E400006E000BF4FF0010C02E000BF4FF0010CC4
:100E50004DF804CD4FEA410C7FEA6C5C4FEA430C3D
:100E600018BF7FEA6C5C1BD001B050EA410C0CBF8C
:100E700052EA430C91EA030F02BF90EA020F0020EE
:100E8000704710F1000F91EA030F58BF994208BF55
:100E900090422CBFD8176FEAE37040F00100704712
:100EA0004FEA410C7FEA6C5C02D150EA013C07D169
:100EB0004FEA430C7FEA6C5CD6D152EA033CD3D0B4
:100EC0005DF8040B704700BF8446104662468C46AE
:100ED0001946634600E000BF01B5FFF7B7FF0028E1
:100EE00048BF10F1000F01BD4DF808EDFFF7F4FF0A
:100EF0000CBF012000205DF808FB00BF4DF808ED95
:100F0000FFF7EAFF34BF012000205DF808FB00BFB7
:100F10004DF808EDFFF7E0FF94BF012000205DF8D9
:100F200008FB00BF4DF808EDFFF7CEFF94BF01208E
:100F300000205DF808FB00BF4DF808EDFFF7C4FF87
:100F400034BF012000205DF808FB00BF4FEA4102DA
:100F500012F5001215D211D56FF47873B3EB62520B
:100F600012D94FEAC12343F0004343EA505311F032
:100F7000004F23FA02F018BF404270474FF00000C4
:100F8000704750EA013005D111F0004008BF6FF002
:100F9000004070474FF00000704700BF4A0011D278
:100FA00012F5001211D20DD56FF47873B3EB6252C3
:100FB0000ED44FEAC12343F0004343EA505323FACF
:100FC00002F070474FF00000704750EA013002D144
:100FD0004FF0FF3070474FF0000070474FEA41027A
:100FE000B2F1E04324BFB3F5001CDCF1FE5C0DD987
:100FF00001F0004C4FEAC0024CEA5070B2F1004FD1
:1010000040EB830008BF20F00100704711F0804FD3
:1010100021D113F13872BCBF01F00040704741F498
:1010200080114FEA5252C2F11802C2F1200C10FA9C
:101030000CF320FA02F018BF40F001004FEAC12380
:101040004FEAD32303FA0CFC40EA0C0023FA02F324
:101050004FEA4303CCE77FEA625307D150EA0133FA
:101060001EBF4FF0FE4040F44000704701F00040CA
:1010700040F0FE4040F40000704700BF53B94AB949
:10108000002908BF00281CBF4FF0FF314FF0FF3090
:1010900001F0F8B8ADF1080C6DE904CE00F006F8E7
:1010A000DDF804E0DDE9022304B070472DE9F047E4
:1010B000089E04468846002B4BD18A42154667D9C4
:1010C000B2FA82F24AB1C2F1200701FA02F320FA21
:1010D00007F7954047EA030894404FEA154E230C62
:1010E000B8FBFEF71FFA85FC0EFB178843EA08439E
:1010F00007FB0CF1994209D9EB1807F1FF3080F09A
:101100001B81994240F21881023F2B445B1AA4B222
:10111000B3FBFEF00EFB103344EA034400FB0CFC6F
:10112000A44509D92C1900F1FF3380F00781A445AB
:1011300040F2048102382C4440EA0740A4EB0C043E
:1011400000271EB1D4400023C6E900433946BDE85C
:10115000F0878B4209D9002E00F0EB800027C6E90A
:10116000000138463946BDE8F087B3FA83F7002F0F
:1011700047D18B4202D3824200F2FA80841A61EB9B
:10118000030301209846002EE0D0C6E90048DDE7C1
:1011900002B9FFDEB2FA82F2002A40F08F80491BCA
:1011A0004FEA154E1FFA85F80127B1FBFEFC230C10
:1011B0000EFB1C1143EA014308FB0CF1994207D9CD
:1011C000EB180CF1FF3002D2994200F2CD80844638
:1011D000591AA3B2B1FBFEF00EFB101443EA04440B
:1011E00008FB00F8A04507D92C1900F1FF3302D203
:1011F000A04500F2B6801846A4EB080440EA0C4073
:101200009FE7C7F1200CBB4022FA0CFE4EEA030E0A
:1012100001FA07F420FA0CF521FA0CF34FEA1E4804
:101220002543B3FBF8F92C0C08FB19331FFA8EFA8F
:1012300044EA034309FB0AF49C4202FA07F200FA6B
:1012400007F10BD91EEB030309F1FF3080F0878013
:101250009C4240F28480A9F1020973441B1BADB289
:10126000B3FBF8F008FB103345EA034400FB0AFA2D
:10127000A24508D91EEB040400F1FF336BD2A2454E
:1012800069D90238744440EA0940A0FB0289A4EB02
:101290000A044C45C2464B4654D351D0002E69D067
:1012A000B1EB0A0564EB030404FA0CFCFD40FC40BE
:1012B0004CEA0505C6E90054002747E7C2F12003C0
:1012C00020FA03F7954001FA02F021FA03F34FEAFE
:1012D000154E3843010CB3FBFEF71FFA85F80EFBE1
:1012E000173341EA034107FB08F38B4204FA02F487
:1012F00007D9691807F1FF3C2FD28B422DD9023F45
:101300002944CB1A81B2B3FBFEF00EFB103341EA45
:10131000034100FB08F38B4207D9691800F1FF3C39
:1013200017D28B4215D902382944C91A40EA074717
:101330003BE73746304609E70746E7E61846FBE64F
:101340004145ABD2B8EB020A69EB0E0201381346F5
:10135000A4E76046E9E7184695E76746D1E7814686
:101360007CE702382C4447E7ACF1020C2B442FE712
:10137000384608E73746E9E603685A004CBF43F0B1
:10138000004323F000431844704700BF61B32DE9C8
:10139000F84F01F1FF3A90460646D146002707EB89
:1013A000090404EBD4746410E50071190846FFF7D2
:1013B000E3FFA245834605F10800304409D0FFF75A
:1013C000DBFFC34500F1FF3005D8404509D2671C5B
:1013D000E5E7C34505D9A74202D004F1FF39DEE7AE
:1013E00000210846BDE8F88F08467047012807D05D
:1013F000022807D0044B00280CBF18460020704775
:101400000248704702487047D91A0000DD1A0000F0
:10141000E11A000030B5254B83B004468D1E4BB356
:1014200001A92846AFF30080F0B101992A46FFF7E1
:10143000ADFF0146C0B1FFF79FFF4B68A064012BD1
:101440002ED0002B01F1040026DBFFF795FF0023CF
:10145000C4E913030368002B12DBFFF78DFF0023A1
:101460002061184603B030BD0023236109231846CC
:1014700003B030BD0E490F48091AC9100191D5E7D4
:10148000C3F30360FFF7B2FF002814BF0023092352
:101490002061184603B030BD0123C4E91303D9E726
:1014A000002323610523184603B030BD000000006F
:1014B0005C0C0100040901000368DA0710B504465A
:1014C00006D49B0700F1480009D500F05FFC2368B3
:1014D000590709D51A070ED5DB0613D510BD00F044
:1014E0004DFC23685907F5D404F1D00000F056FCF8
:1014F00023681A07F0D404F5A87000F057FC23689D
:10150000DB06EBD404F5E870BDE8104000F092BCB7
:10151000036803B103441846704700BF09207047B1
:10152000704700BF70B504460D4608E02B6C636140
:101530002A462369214601209847082808D1296CAA
:101540002046FFF767FF06460028EFD00BF084F92E
:101550000728FBD13046296CFFF7E2FF281D00F079
:1015600001FC00BF2DE9F0470C1D054617460FCCC6
:10157000ADF5727D03AE0FC60FCC0FC60FCC0FC6F4
:1015800094E80F0002ACD5F80C80D5F8189086E8E6
:101590000F000023236021E0236C6B614FF4F07295
:1015A00021467AA800F070FE2B697AAA29463046B7
:1015B0009847889BCDE900498246636431462B46B3
:1015C0002A460120C0470746F8B94FF4F0727AA9BD
:1015D000204600F059FEBAF1080F1CD1216C2846B4
:1015E000FFF718FF002F08BF0926074618BF0A2675
:1015F0000028D1D0A36B46F01001CDE900492A465E
:10160000636401202B46C04700B1092738460DF519
:10161000727DBDE8F087BAF1070FF6D13846216C2C
:10162000FFF77EFF03A800F09DFB00BF406C7047F2
:10163000F0B5CB6B0B640D1D0F4606460FCDF9B010
:1016400001AC0FC40FCD0FC40FCD0FC495E80F0030
:101650004FF0FF3584E80F00009506E033696A46D5
:10166000314698470828044608D110993046FFF7BC
:10167000D1FE0028F2D0092079B0F0BD6846FFF70E
:101680001BFF062CF7D139463046FFF74BFF00BF52
:1016900030B4DD6BC160826119461D64002230BC2C
:1016A00060E700BF70B5C66843690B64BEB90369E3
:1016B0000A4604460D46014602209847072807D0EF
:1016C000082803D129462046FFF72CFF0BF0C4F869
:1016D0003046296CFFF724FF281D00F043FB012250
:1016E000FFF740FF0BF0B8F8C2681AB1CA6B0A6482
:1016F000002237E79CE700BF704700BF836813B143
:101700000146012018477047042907D8DFE801F097
:101710000308060808000BB90F2A03D902207047F6
:101720000120704700EB820218465368009A13604C
:10173000704700BF10B584B0002303AC0A46009484
:101740001946FFF7E1FF039804B010BD042907D83C
:10175000DFE801F00308060808000BB90F2A03D9D7
:10176000022070470120704700EB8200009A126847
:1017700042601846704700BF10B584B004AC002327
:1017800044F8042D0A4600941946FFF7DFFF04B021
:1017900010BD00BFF0B5D36B1364151D07460E4690
:1017A0000FCDADF50F7D17AC0FC40FCD0FC40FCD0E
:1017B0000FC495E80F004FF0FF3584E80F00169531
:1017C00010E016A8FFF7D8FF314616A8B84716AAAA
:1017D000694678B9049B08209847052804460AD032
:1017E000092807D026996846FFF714FE6A460C219F
:1017F0000028E6D0092416A8FFF75EFE20460DF566
:101800000F7DF0BD2DE9F04F0D46C96C89B00C1D60
:10181000164600F0030B0A6806941F46002B68D09A
:10182000130CD9B212048DF81D30022304EB81048D
:1018300005928DF81C302B6DBBF1020F08BFAC6B0D
:1018400013F0010346D1019300F008030093D4F88C
:101850000090B9F1000F00F0F380022F45D0B4F8EA
:101860000090B4F802800434AB6C28F0010A0F2118
:1018700030469A44FFF75EFF824534D829F00103D1
:101880005344834294BF002001204FEA480808F0E7
:10189000020809F0010948EA0908B8F1010F3AD035
:1018A00031D3B8F1020F1AD1236823F0004ABBF1FB
:1018B000000F66D130B1009A002A6CD0BAF1000F47
:1018C00000F09080002B00DA04340AF1010304EBED
:1018D0008304BCE7304605A900F046FB78B1092037
:1018E00009B0BDE8F08F0020CFE7D4F804800834B9
:1018F000BAE7120203230592ADF81C309BE70820DB
:1019000009B0BDE8F08FBBF1000F02D0002840F015
:10191000B48004349BE7BBF1000F18D1A8B1D4E91F
:101920000023991C4FEAD272D9D005F15801013336
:10193000049100F0B580201DFFF7EAFD04AB0146DD
:101940002846AFF30080002867D108347FE70D21D7
:101950003046D5F82080FFF7EDFE8045F5D1AB6A23
:101960009C42F2D12046FFF707FD0F210246304688
:10197000FFF702FF30462A460021FFF7FDFE072051
:10198000AEE70D213046D5F82080FFF7D3FE804525
:1019900032D0236896E7BAF1000F23D005F158033F
:1019A00004F10408CDF808B0DDF800900397A346D1
:1019B0001C4602E05745B94640D040460494FFF724
:1019C000A7FD04AB014600222846AFF3008009F1D1
:1019D000010708F104080028ECD0D1455C46DDE998
:1019E00002B7D6D130460D21FFF7A4FE049B286232
:1019F000C5E90934062073E7AB6A9C42C9D10422C9
:101A00004FF00008A318C5E90AA8C5E90C2323680C
:101A100043454DDB0123019357E780460D213046B6
:101A2000FFF788FEB8F1020F28623ED12B46049AD8
:101A300043F82C2F6B62AC62062051E75C46D1E77D
:101A400005A9304600F090FA00287FF448AF019BCA
:101A5000002B3FF454AF0F213046FFF76BFE0E21F1
:101A600002463046FFF788FE30461A4A0F21FFF73C
:101A700083FE072009B0BDE8F08F2046FFF77CFC0D
:101A800004340746AC632846AFF3008000283FF4D7
:101A900026AF30463A460F21FFF76EFE07201FE7BC
:101AA00030460D21FFF746FE2862049B6B62C2E7B9
:101AB0000AF1010004EB8000FFF75EFC0F210246F3
:101AC0003046FFF759FE30462A464146FFF754FE9E
:101AD000072005E700000000002393E6012391E6BC
:101AE00002238FE62DE9F0410546C4B0042906D84B
:101AF000DFE801F04D2B05030900032B5FD0022026
:101B000044B0BDE8F081002BF9D1102AF7D82B683A
:101B1000DC0600F1F48022AC2046019200F094F93A
:101B2000A86B019A0023012606FA03F1114203D0A3
:101B3000016844F8231004300133042BF4D1A86366
:101B4000204600F077F90020DAE7012B4FEA124631
:101B500097B252D0052BD2D106EB0708B8F1200F6F
:101B6000CDD80F2E40F29980B846002F40F0DB8090
:101B7000AA6BAA630F2E40F2BE80B8F1000F02D00C
:101B800002A800F00BF9002044B0BDE8F081002B62
:101B9000B5D1AC6B97B2281D012606FA03F1394284
:101BA00003F1010302D0216801600434102B00F11D
:101BB0000400F2D112F40050E5D1AC63A0E7160C9A
:101BC00097B2F319102B9AD82B681A075DD422AC60
:101BD000204600F00DF904EBC601AB6B3FB103EBFF
:101BE000C702186841F8040B04339342F9D1204628
:101BF000AB6300F0DBF8002082E7F219102A3FF611
:101C00007EAF0F2E3FF67BAF2A68D10708D5284656
:101C100022F0030240F8482B019300F0B3F8019B37
:101C2000019322AC204600F0ADF8A96B019B002F78
:101C300000F095807F0004EBC6044FF00008043CE0
:101C400001EB870251F8040B44F8040F9142F9D1DB
:101C5000B8F1000F0FD002AC102E314638BF102162
:101C600004EBC101843902EBC80452F8040B41F8BB
:101C7000040F9442F9D1012B7FF47BAF22AC0432E4
:101C8000AA63204600F07AF87DE723F008032B6072
:101C900005F5A87000F0ACF899E7B8F1100F2A68C4
:101CA00043D9D007A8F110080BD5284622F001022D
:101CB00042F0020240F8482B019300F06BF82A68CA
:101CC000019B510725D40F2E04D822A8019300F0C0
:101CD00061F8019B019302AC204600F063F8C6F165
:101CE00010010029AA6B019BB6DD22AC4F0004EB6A
:101CF000C6041146A3E722A800F048F83DE723F008
:101D000010032B6005F5E870019200F09DF8019A30
:101D100001E7284622F0040240F8D02B019300F09E
:101D200041F8019BCFE72A68CBE7D0070AD52846C0
:101D300022F0010242F0020240F8482B019300F029
:101D400029F8019B019322AC204600F023F8B84605
:101D5000A96B019B002F7FF46DAF0A4609E70A4685
:101D60008DE700BF00F1340191E838009C46A6469B
:101D70004CF8045D90E8FF0FE54600BD90EC210BA8
:101D8000704700BF80EC210B704700BF90EC200B28
:101D9000704700BF80EC200B704700BFD0EC200BD9
:101DA000704700BFC0EC200B704700BFF0EC020191
:101DB000F0EC0211F0EC0221F0EC0231F0EC024107
:101DC000F0EC0251F0EC0261F0EC0271F0EC0281F7
:101DD000F0EC0291F0EC02A1F0EC02B1F0EC02C1E7
:101DE000F0EC02D1F0EC02E1F0EC02F1704700BF40
:101DF000E0EC0201E0EC0211E0EC0221E0EC023147
:101E0000E0EC0241E0EC0251E0EC0261E0EC027136
:101E1000E0EC0281E0EC0291E0EC02A1E0EC02B126
:101E2000E0EC02C1E0EC02D1E0EC02E1E0EC02F116
:101E3000704700BFB0FC0181B0FC0191B0FC01A172
:101E4000B0FC01B1704700BFA0FC0181A0FC019172
:101E5000A0FC01A1A0FC01B1704700BFEC4600B599
:101E60002DE900502DE9FF1F4FF000032DE90C0074
:101E700001A9FFF7DDFBDDF840E012B0704700BFBD
:101E8000EC4600B52DE900502DE9FF1F4FF000038F
:101E90002DE90C0001A9FFF705FCDDF840E012B0C8
:101EA000704700BFEC4600B52DE900502DE9FF1F3B
:101EB0004FF000032DE90C0001A9FFF715FCDDF838
:101EC00040E012B0704700BFEC4600B52DE900506D
:101ED0002DE9FF1F4FF000032DE90C0001ABFFF7C8
:101EE000D7FBDDF840E012B0704700BFEC4600B50C
:101EF0002DE900502DE9FF1F4FF000032DE90C00E4
:101F000001AAFFF747FCDDF840E012B0704700BFC0
:101F1000027A82B9437AABB14268013B10B4437292
:101F200013680321141D01721A02446002605DF8F7
:101F3000044B180E70470368013A02721A020260DD
:101F4000180E7047B020704700B585B003AA002373
:101F5000009219460C22FFF7D7FB039805B05DF8F5
:101F600004FB00BFF0E700BF2DE9F043054685B054
:101F70000E464FF000083046FFF7CAFFB02804466F
:101F800000F0B180070620D500F0F003802B65D06B
:101F9000902B36D0A02B78D0B02B47D0C02B00F0A0
:101FA0008A8000F0F803D02B0BD100F00702013239
:101FB00042F40022052301212846FFF793FD002863
:101FC000D9D0092005B0BDE8F0830DF10C0900233C
:101FD00019468700CDF800900D222846FFF794FBA4
:101FE000FFB2039BCDF80090043760064CBFDF1BA7
:101FF000FF18002319460D2228460397FFF7A6FB7A
:10200000B9E700F00D030D2BDBD003AF002300F088
:102010000F02194600972846FFF776FB002300972A
:1020200019460D222846FFF791FBA4E7B1285FD09F
:10203000B22800F0CC80B3287ED000F0FC03B42B93
:10204000BFD000F007020132012342F400221946FA
:102050002846FFF747FD00288DD0B2E73046FFF74E
:1020600057FF24020443B4F5004FAAD024010023F3
:10207000A2B219462846FFF735FD0028A1D114F475
:10208000004F18BF4FF0010875E7C24302F0070385
:102090004FF47F621A41010702F47F624FF00003A0
:1020A00048BF42F4804219462846FFF71BFD00282E
:1020B0003FF461AF85E7C62851D0C7285AD000F059
:1020C000F803C02B69D0C82875D0C9287FF479AF30
:1020D0003046FFF71DFF020300F00F0002F47022EC
:1020E0000130024366E7B8F1000F14D0002069E721
:1020F0003046FFF70DFF00283FF463AF10F0F00308
:102100007FF45FAF024619462846FFF7EBFC002834
:102110003FF431AF55E703AC43460E2241460094ED
:102120002846FFF7F1FA0094284643460F2241461D
:10213000FFF70CFB404645E73046FFF7E9FE010399
:1021400000F00F0001F47021421C01230A432846CD
:102150001946FFF7C7FC00283FF40DAF31E73046C2
:10216000FFF7D6FE010300F00F0001F47021421CBE
:102170000323EBE73046FFF7CBFE024600283FF48F
:1021800020AF10F0F0037FF41CAF04212846FFF7C6
:10219000A9FC00283FF4EFAE13E700F00F02013274
:1021A000032342F4202219462846FFF79BFC00280F
:1021B0003FF4E1AE05E73046FFF7AAFE00F0F0027B
:1021C00000F00F031032013343EA0232F2E600233B
:1021D0000DF10C090D221946CDF800902846FFF7A5
:1021E00093FA3046FFF794FE02064FF002070CD533
:1021F000039B00F07F00B840034430460393FFF791
:1022000087FE030607F10707F2D4039BCDF8009081
:1022100000F07F0403F50172BC400023144419460A
:102220000D2228460394FFF791FAA4E610B5C36C7B
:1022300084B05A6803208DF80C00DC798DF80D40CD
:1022400012020833084601A901920293FFF78CFE9F
:1022500004B010BD08B5FFF785FE806C08BD00BF57
:1022600008B5FFF77FFEC06CC37900EB8300083030
:1022700008BD00BF08B50AF0EFFA00BF08B5FFF7C8
:10228000F9FF00BF704700BF844641EA000313F026
:1022900003036DD1403A41D351F8043B40F8043B6D
:1022A00051F8043B40F8043B51F8043B40F8043B30
:1022B00051F8043B40F8043B51F8043B40F8043B20
:1022C00051F8043B40F8043B51F8043B40F8043B10
:1022D00051F8043B40F8043B51F8043B40F8043B00
:1022E00051F8043B40F8043B51F8043B40F8043BF0
:1022F00051F8043B40F8043B51F8043B40F8043BE0
:1023000051F8043B40F8043B51F8043B40F8043BCF
:1023100051F8043B40F8043B403ABDD2303211D36F
:1023200051F8043B40F8043B51F8043B40F8043BAF
:1023300051F8043B40F8043B51F8043B40F8043B9F
:10234000103AEDD20C3205D351F8043B40F8043B6F
:10235000043AF9D2043208D0D2071CBF11F8013B6D
:1023600000F8013B01D30B8803806046704700BF33
:10237000082A13D38B078DD010F003038AD0C3F142
:102380000403D21ADB071CBF11F8013B00F8013B24
:1023900080D331F8023B20F8023B7BE7043AD9D3E3
:1023A000013A11F8013B00F8013BF9D20B780370B8
:1023B0004B7843708B788370604670470000000054
:1023C00001F0FF01102A2BDB10F0070F08D010F8E6
:1023D000013B013A8B422DD010F0070F42B3F6D1EA
:1023E000F0B441EA012141EA014122F007047FF003
:1023F00000070023F0E80256083C85EA010586EA5A
:10240000010685FA47F5A3FA87F586FA47F6A5FA95
:1024100087F68EB9EED1F0BC01F0FF0102F00702A1
:1024200032B110F8013B013A83EA010313B1F8D14C
:102430000020704701387047002D06BF354603382D
:10244000073815F0010F07D1013015F4807F02BF66
:10245000013015F4C03F0130F0BC0138704700BFB7
:10246000000000000000000000000000000000006C
:10247000000000000000000000000000000000005C
:1024800090F800F06DE9024520F007016FF0000CB4
:1024900010F0070491F820F040F049804FF000045C
:1024A0006FF00700D1E9002391F840F000F1080037
:1024B00082FA4CF2A4FA8CF283FA4CF3A2FA8CF36F
:1024C0004BBBD1E9022382FA4CF200F10800A4FAD6
:1024D0008CF283FA4CF3A2FA8CF3E3B9D1E904232A
:1024E00082FA4CF200F10800A4FA8CF283FA4CF361
:1024F000A2FA8CF37BB9D1E9062301F1200182FA1B
:102500004CF200F10800A4FA8CF283FA4CF3A2FA20
:102510008CF3002BC6D0002A04BF04301A4612BA2E
:10252000B2FA82F2FDE8024500EBD2007047D1E931
:10253000002304F00305C4F100004FEAC50514F0C0
:10254000040F91F840F00CFA05F562EA05021CBF91
:1025500063EA050362464FF00004A9E780B584B042
:1025600000AF78600B46FB707B68012B11D80C49DB
:102570007B687A6841F823207B689B00084A1344F3
:10258000184605F0B7F87B689B00054A1344FB60CA
:1025900001E00023FB60FB6818461037BD4680BD94
:1025A000C80E002080B584B000AF786039607B68C9
:1025B000002B07D03B681946786805F0B7F900236F
:1025C000FB7301E00823FB73FB7B18461037BD4605
:1025D00080BD80B588B002AFF8607A603B600B4682
:1025E0007B8100237B6197F82030002B0CBF0123F7
:1025F0000023DBB23B61FB68002B19D07B895900BB
:102600003A683B69009313467A68F86805F0B6F9B2
:1026100003467B617B6913F1020F01D1012308E0BE
:102620007B69B3F1FF3F01D1042302E0002300E006
:10263000082318461837BD4680BD80B588B002AF64
:10264000F8607A603B600B467B8100237B6197F8E2
:102650002030002B0CBF01230023DBB23B61FB6861
:10266000002B19D07B8959003A683B6900931346C7
:102670007A68F86805F0F2F903467B617B6913F12B
:10268000020F01D1012308E07B69B3F1FF3F01D1C3
:10269000042302E0002300E0082318461837BD4653
:1026A00080BD80B483B000AF786000BF0C37BD46FA
:1026B0005DF8047B7047000080B584B000AFF8601F
:1026C000B9601346FB71BB681F2B05D90D4B0E4A31
:1026D000FF210E480AF0C8F8FB68BA6853F82230A8
:1026E00023F0807323F4E063FA79120202F4E062CB
:1026F00043EA0201FB68BA6843F8221000BF1037B2
:10270000BD4680BDA4F20000ACF40000B0F20000B1
:1027100080B483B000AF78600B46FB707B681B68A9
:1027200023F01802FB78DB0003F018031A437B68E0
:102730001A6000BF0C37BD465DF8047B704700008F
:1027400090B58FB000AF786187ED020B87ED001B6D
:10275000524A7B695B01134411331B78002B40F014
:102760008780002387F82830002387F8293000234A
:1027700087F82A308023FB62484A7B695B01134457
:102780001868464A7B695B01134404331968434A5D
:102790007B695B01134410331B781A46FFF78CFFEB
:1027A0003E4A7B695B01134408331B6807F128022A
:1027B0001146184608F0D2FB384A7B695B01134486
:1027C00008331B68DBB200220121184608F04AFCDE
:1027D000324A7B695B011344113304221A702F4A79
:1027E0007B695B01134403F11802D7E90234C2E9A3
:1027F000003402233B7600237B76284A7B695B0109
:1028000013441833D3E9003418462146FEF7C6FBBB
:102810000346FB61D7E90001FEF7C0FB03463B62BC
:102820000023BB841D4A7B695B01134408331B688A
:102830001B4A52F823303B630021386BFFF768FFD7
:10284000164A7B695B01134408331868134A7B6995
:102850005B0113440C331B68DAB207F11803194605
:1028600008F05EFC7B695B010C4A13447B630FE05C
:102870000A4A7B695B01134411331B78042B05D191
:102880007B695B01054A13447B6301E000237B63A2
:102890007B6B18463C37BD4690BD00BF3002002020
:1028A0007CFD000080B483B000AF786000BF0C37BF
:1028B000BD465DF8047B704790B58BB000AFF86003
:1028C00087ED000BFB687B627B6A002B2CD07B6A58
:1028D0005B7C042B28D102233B7400237B747B6A2E
:1028E000D3E9063418462146FEF758FB03467B61C0
:1028F000D7E90001FEF752FB0346BB610023BB830F
:102900007B6A9B680A4A52F823303B620021386A8E
:10291000FFF7FEFE7B6A98687B6ADB68DAB207F134
:102920001003194608F0FCFB00BF2C37BD4690BDD4
:102930007CFD000080B485B000AF78607B68FB60F0
:10294000FB68002B06D0FB685B7C042B02D1FB6884
:1029500000225A7400BF1437BD465DF8047B7047EF
:1029600080B483B000AF786000BF0C37BD465DF81F
:10297000047B704780B584B000AFF860B9607A60BE
:10298000BB680F2B06D90A4B0A4A40F2E2210A48DB
:1029900009F06AFFFA68BB685B01134403F58053D2
:1029A00010337A681A6000BF1037BD4680BD00BF83
:1029B000E8F20000E4F4000014F3000080B584B0F5
:1029C00000AFF860B9601346FB71BB680F2B06D9E6
:1029D0000C4B0D4A4FF460710C4809F045FFBB6881
:1029E0005B0103F580531833FA681344043303F191
:1029F00004735B010433FA7992B21A8000BF103776
:102A0000BD4680BDE8F2000000F5000014F30000B0
:102A100090B587B000AFF8607A603B600B46FB7200
:102A200000237B61FB681B68022B00F04D81032BA8
:102A300000F0DF81012B00F09580954B00221A6099
:102A4000934B1B68934A52F82330002B41D1904B93
:102A50001B68914ADB00134400229A718C4B1B685F
:102A60008D4ADB00134400221A71894B1B688A4A85
:102A7000DB00134400225A71854B1B68864A4FF4D1
:102A8000E13142F83310824B1B68184605F072FAA8
:102A90007F4B1B689B01814A13448149184608F00B
:102AA0006FF97B4B18687A4B1A6813461B019B1A07
:102AB0009B007C4A9918764B1B68DB00764A1344CE
:102AC0001A4609F015FA724B1B68724A012142F846
:102AD00023107B68B3F1FF3F20D06D4B1A68724919
:102AE00013469B0013449B000B4421221A60684B41
:102AF0001A686D4913469B0013449B000B4408332E
:102B00006A4A1A60624B1A68674913469B0013446D
:102B10009B000B440C33664A1A6015E05C4B1A6844
:102B2000614913469B0013449B000B4404331E224F
:102B30001A60574B1A685C4913469B0013449B006C
:102B40000B4410335B4A1A60514B1B68504A1268A1
:102B5000594941F823204E4B1B689B00564A1344A9
:102B60007B61DBE14A4B01221A60494B1B68494AF1
:102B700052F82330002B41D1454B1B68464ADB00FD
:102B8000134400229A71424B1B68434ADB001344F2
:102B900000221A713E4B1B683F4ADB00134400229F
:102BA0005A713B4B1B683C4A4FF4E13142F83310F9
:102BB000374B1B68184605F0DDF9354B1B689B0148
:102BC000364A13443649184608F0DAF8304B18688C
:102BD0002F4B1A6813461B019B1A9B00314A991808
:102BE0002B4B1B68DB002C4A13441A4609F080F972
:102BF000274B1B68274A012142F823107B68B3F159
:102C0000FF3F20D0224B1A68274913469B001344EC
:102C10009B000B4400221A601D4B1A682249134680
:102C20009B0013449B000B440833244A1A60184B42
:102C30001A681D4913469B0013449B000B440C3338
:102C40001F4A1A6015E0124B1A68174913469B0079
:102C500013449B000B44043300221A600C4B1A6887
:102C6000114913469B0013449B000B441033154A33
:102C70001A60074B1B68064A12680F4941F8232067
:102C8000034B1B689B000C4A13447B6146E100BF69
:102C9000001300200413002020120020380F002011
:102CA00000000020B810002058120020D00E002094
:102CB000F40E0020180F0020E8120020180F00204A
:102CC000180F0020380F0020AD4B02221A60AC4BC9
:102CD0001B68AC4A52F82330002B41D1A84B1B682B
:102CE000A94ADB00134400229A71A54B1B68A64A2F
:102CF000DB00134400221A71A14B1B68A24ADB00BF
:102D0000134400225A719E4B1B689F4A4FF4E131D5
:102D100042F833109A4B1B68184605F02BF9984B74
:102D20001B689B01994A13449949184608F028F8F2
:102D3000934B1868924B1A6813461B019B1A9B0011
:102D4000944A99188E4B1B68DB008F4A13441A462D
:102D500009F0CEF88A4B1B688A4A012142F82310F9
:102D60007B68B3F1FF3F20D0854B1A688A49134630
:102D70009B0013449B000B4400221A60804B1A688E
:102D8000854913469B0013449B000B440833834A38
:102D90001A607B4B1A68804913469B0013449B00C2
:102DA0000B440C337E4A1A6015E0754B1A687A4959
:102DB00013469B0013449B000B44043300221A600B
:102DC0006F4B1A68744913469B0013449B000B44D5
:102DD0001033744A1A606A4B1B68694A1268724958
:102DE00041F82320664B1B689B006F4A13447B61AC
:102DF00094E0634B03221A60614B1B68614A52F8EE
:102E00002330002B41D15E4B1B685F4ADB0013442B
:102E100000229A715A4B1B685B4ADB001344002264
:102E20001A71574B1B68584ADB00134400225A7131
:102E3000534B1B68544A4FF4E13142F83310504B66
:102E40001B68184605F096F84D4B1B689B014F4ACE
:102E500013444F49184607F093FF494B1868484BF5
:102E60001A6813461B019B1A9B004A4A9918444B47
:102E70001B68DB00444A13441A4609F039F8404BFA
:102E80001B68404A012142F823107B68B3F1FF3FE1
:102E900020D03B4B1A68404913469B0013449B00CB
:102EA0000B4400221A60364B1A683B4913469B00BC
:102EB00013449B000B4408333C4A1A60304B1A6899
:102EC000354913469B0013449B000B440C33384A8E
:102ED0001A6015E02A4B1A682F4913469B001344C9
:102EE0009B000B44043300221A60254B1A682A49C0
:102EF00013469B0013449B000B4410332D4A1A6069
:102F00001F4B1B681E4A1268274941F823201C4B9F
:102F10001B689B00244A13447B6100BF7B68B3F1AC
:102F2000FF3F28D0164B1A6813461B019B1A9B00C3
:102F30002833184A1344181D114B1B681A461E49A2
:102F400007F05CFF0E4B18680D4B1A6812491346C8
:102F50009B0013449B000B4408331C68084B1A6801
:102F60000D4913469B0013449B000B441B681A46F3
:102F7000214600F0DFF87B6918461C37BD4690BD3E
:102F8000001300200413002020120020380F00201E
:102F900000000020B810002058120020180F002058
:102FA000180F0020380F0020E8120020180F002012
:102FB000180F0020380F0020E131000080B483B0EA
:102FC00000AF78603960002318460C37BD465DF8C5
:102FD000047B704780B483B000AF78600846114628
:102FE0001A460346FB700B46BB7013467B700023EA
:102FF00018460C37BD465DF8047B704780B586B037
:1030000000AFF860B9607A60FB683B613B69002BF8
:1030100033D03B691B681F4AD35C012B2DD13B6920
:103020001B681D4A52F82330012B0FD13B691A68E7
:103030001A4913469B0013449B000B4408331B683A
:103040007A681946B868FFF71FF90EE03B691A68FD
:10305000124913469B0013449B000B440C331B681E
:103060007A681946B868FFF70FF93B691B68094A87
:103070000021D1540023FB7506E07A680021B8686E
:1030800009F032FF2023FB75FB7D18461837BD463B
:1030900080BD00BF50120020D01200205812002026
:1030A00080B586B000AFF860B9607A60FB683B61BC
:1030B0003B69002B2AD03B691B680021184609F0A8
:1030C00059F80346082B21D03B691A681349134667
:1030D0009B0013449B000B4410331B687A68B9684B
:1030E0001846FFF7D1F83B6918683B691A680B4925
:1030F00013469B0013449B000B4410331B687A68F3
:10310000194609F013F80346FB7501E02023FB750F
:10311000FB7D18461837BD4680BD00BF5812002001
:1031200080B483B000AF786000BF0C37BD465DF857
:10313000047B704780B588B000AFF860B9607A60F2
:10314000FB68052B06D9214B214A40F28911214801
:1031500009F08AFB204AFB6852F82330FB61FB69C7
:1031600093F82C301B09DBB21A461C4B53F8223063
:10317000BB61FB6993F82C3003F00F037B61FB69A3
:103180005B78DBB2002B01D009231AE0FB69012236
:103190005A70BB681A467969B869FFF7EBFB7A6821
:1031A0007969B86907F034FD01227969B869FFF7D8
:1031B00005FC7B69DBB201221946B86907F023FCE4
:1031C000002318462037BD4680BD00BF4CF30000E9
:1031D000C0F400006CF30000B05700203CFB00007E
:1031E00080B582B000AF78600B46FB707B681846F4
:1031F00000F004F800BF0837BD4680BD80B586B03A
:1032000000AF78607B68052B06D93D4B3D4A40F204
:10321000AD113D4809F028FB3C4A7B6852F8233049
:103220007B617B6993F82C301B09DBB21A46384B63
:1032300053F822303B617B6993F82C3003F00F0385
:10324000FB600022F9683869FFF7B8FBFB68DBB266
:1032500000221946386907F0D6FB7B69DB78DBB2C0
:10326000002B04D07B691033184607F01BF97B69EB
:1032700000225A70274A7B68134401221A70264A9A
:103280007B6852F82330002B1BD124497A681346FF
:103290009B0013449B000B440C3318681F497A6849
:1032A00013469B0013449B000B441B681A460146BF
:1032B0007868FFF73FFF184A7B68012142F8231026
:1032C0001AE016497A6813469B0013449B000B448E
:1032D0000833186811497A6813469B0013449B0011
:1032E0000B441B681A4601467868FFF723FF0A4A19
:1032F0007B68002142F8231000BF1837BD4680BD0F
:103300004CF3000018F500006CF30000B0570020EB
:103310003CFB000050120020D01200205812002068
:1033200080B590B000AF78600B46FB70FB78002B47
:1033300027D107F1240300221A605A609A60DA60EC
:103340001A615A612D4A7B6852F833307B6201233F
:1033500087F82830012387F829304FF0FF333B638B
:1033600007F12403184607F0CDFF244A7B68DB00F1
:10337000134401221A717B68DB00204A1344FB636B
:1033800036E0FB78012B31D107F10C0300221A60E3
:103390005A609A60DA601A615A61184A7B6852F87A
:1033A0003330FB6001233B754FF0FF33BB6107F106
:1033B0000C03184608F016F8104A7B68DB0013442B
:1033C00002221A717B68292B0AD97B682C2B07D81B
:1033D0000A4A7B6852F833300121184608F03AF85F
:1033E0007B68DB00054A1344FB6301E00023FB63B9
:1033F000FB6B18464037BD4680BD00BFB4000020BF
:1034000080B586B000AF78607B683B613B69002B7C
:103410000BD03B691B79012B07D13B691B68184610
:1034200008F026F80346FB7501E00023FB753B69B5
:103430001B681B0ADBB2FB603B691B68DBB2BB602D
:10344000FB68022B02D1BB68062B05D0FB68002B62
:1034500009D1BB68042B06D1FB7D002B0CBF0123D7
:103460000023DBB2FB75FB7D18461837BD4680BDD7
:1034700080B586B000AF78600B46FB707B687B61DF
:103480007B69002B2FD07B691B79022B2BD17B69A9
:103490001B681B0ADBB23B617B691B68DBB2FB600C
:1034A0003B69012B05D1FB68162B08D0FB68152B57
:1034B00005D03B69042B0FD1FB681A2B0CD17B691B
:1034C0001A68FB78012B14BF01230023DBB21946D5
:1034D000104607F0BFFF06E07B691B68FA781146CB
:1034E000184607F0B7FF00BF1837BD4680BD80B44F
:1034F00085B000AF78607B68FB60FB68002B0ED066
:10350000FB681B79022B03D1FB6800221A7106E0CD
:10351000FB681B79012B02D1FB6800221A7100BFE6
:103520001437BD465DF8047B704780B400AFFEE7FA
:1035300080B483B000AF78607B68013B032B0BD86D
:1035400001A252F823F000BF5935000059350000A0
:10355000593500005935000000BFFEE7704770473D
:103560000020002104460D46084809F09BF909F0A7
:10357000E3F92046294605F01FFB0548002105F028
:103580004FFC05F0A9FB09F099F90000DDC8000027
:103590007CF5000080B584B000AFF860B9601346D8
:1035A000FB71BB681F2B05D90D4B0E4AFF210E483E
:1035B00009F05AF9FB68BA6853F8223023F0807397
:1035C00023F4E063FA79120202F4E06243EA0201B2
:1035D000FB68BA6843F8221000BF1037BD4680BDB3
:1035E000D4F30000A4F50000E0F3000080B483B041
:1035F00000AF78600B46FB707B68FA781A7000BFEA
:103600000C37BD465DF8047B7047000080B584B080
:1036100000AF3B4600221A605A609A60DA60064B9F
:103620003B6002237B723B461946002007F04AF8B4
:1036300000BF1037BD4680BD80F0FA0280B584B06F
:1036400000AF074A3B1D07CA83E807003B1D194628
:10365000002007F085F800BF1037BD4680BD00BFD1
:1036600018F4000080B500AF2A210848FFF7BEFF1C
:10367000002212210648FFF78DFFFFF7C7FFFFF773
:10368000DDFF044807F0C0F800BF80BD00E0074040
:10369000009004408CF5000080B400AF084B5A79CC
:1036A0000132D2B25A71064B5B79092B02D9044B15
:1036B00000225A7100BFBD465DF8047B704700BF11
:1036C00098560020F0B587B000AF034687ED000B99
:1036D000FB814FF000024FF00003D7E90001FDF736
:1036E00021FC0346002B18D04FF00002204BD7E9F5
:1036F0000001FDF70DFC0346002B0BD0B7F90E407F
:10370000D7E90001FDF74AFC0346DBB204FA03F3F4
:10371000FB8226E00023FB8223E04FF00002154BE2
:10372000D7E90001FDF7FEFB0346002B0FD0B7F9E8
:103730000E603C687B6883F0004520462946FDF713
:103740002DFC0346DBB246FA03F3FB8209E0B7F92E
:103750000E30002B03DA4FF6FF73FB8201E00023EB
:10376000FB82B7F9163018461C37BD46F0BD00BFC6
:1037700000002E4000002EC090B482B000AF7860F0
:10378000204BD3F840321A4613469B0013445B008B
:103790001A461D4BB3F802319A4208D3194B1B222B
:1037A00083F84822174B0022C3F8402225E07B68AB
:1037B000D3E90034144AC2E91C34134B012283F8C4
:1037C0003321114B012283F838210F4B002283F85B
:1037D00035210D4B002283F836210B4B002283F854
:1037E0003421094B002283F83721074B012283F84B
:1037F0003A21054B002283F8392100BF0837BD4626
:1038000090BC7047485400200853002090B587B002
:1038100000AFF860B9607A60414BD3F840321A4685
:1038200013469B0013445B0007EE903AF8EE677A6C
:10383000C7ED057A3B4BD3ED3A7A97ED057AB4EEB6
:10384000E77AF1EE10FA0CDBBB681B78002B08D08E
:10385000334B012283F84822314B0022C3F8402227
:103860005AE07B68D3E9003418462146FDF7B6FBE1
:1038700007EE100A2B4BD3ED3A7A37EE677A294BD5
:10388000B3F8043107EE903AF8EE677A77EE677A8C
:1038900097ED057AB4EEE77AF1EE10FA08DB204BEB
:1038A000032283F848221E4B0022C3F8402233E053
:1038B0001C4B93F82531032B08D01A4B002283F8B8
:1038C0003B21174B132283F8482225E0FB68D3E9FC
:1038D0000034144AC2E91C34124B012283F833210C
:1038E000104B012283F838210E4B002283F8372138
:1038F0000C4B002283F834210A4B002283F8362136
:10390000084B002283F83521064B012283F8392128
:10391000044B002283F83A2100BF1C37BD4690BDFE
:10392000485400200853002090B587B000AFF860DD
:10393000B9607A60414BD3F840321A4613469B0077
:1039400013445B0007EE903AF8EE677AC7ED057A0C
:103950003B4BD3ED3A7A97ED057AB4EEE77AF1EE88
:1039600010FA0CDBBB681B78002B08D0334B042209
:1039700083F84822314B0022C3F840225AE07B688A
:10398000D3E9003418462146FDF728FB07EE100A5C
:103990002B4BD3ED3A7A37EE677A294BB3F80431E3
:1039A00007EE903AF8EE677A77EE677A97ED057A48
:1039B000B4EEE77AF1EE10FA08DB204B062283F82A
:1039C00048221E4B0022C3F8402233E01C4B93F8E0
:1039D0002531032B08D01A4B002283F83B21174BCB
:1039E000132283F8482225E0FB68D3E90034144A07
:1039F000C2E91C34124B012283F83321104B0122FF
:103A000083F838210E4B002283F837210C4B00221B
:103A100083F834210A4B002283F83621084B002218
:103A200083F83521064B012283F83921044B00220B
:103A300083F83A2100BF1C37BD4690BD4854002092
:103A40000853002090B52DED028B83B000AF786055
:103A50003960314BD3F840321A4613469B00134469
:103A60005B0007EE903AB8EE678A3B68D3E9003412
:103A700018462146FDF7B2FA07EE100A274BD3EDA0
:103A80003A7A77EE677AB4EEE78AF1EE10FA08DB5D
:103A9000214B082283F848221F4B0022C3F8402202
:103AA00033E01E4B93F82531012B08D01B4B00222D
:103AB00083F83B21184B132283F8482225E07B68CA
:103AC000D3E90034154AC2E91C34144B012283F8AF
:103AD0003321124B012283F83821104B002283F846
:103AE00037210E4B002283F834210C4B002283F83F
:103AF00036210A4B002283F83521084B012283F836
:103B00003921064B002283F83A2100BF0C37BD460D
:103B1000BDEC028B90BD00BF48540020085300202C
:103B200090B52DED028B83B000AF78603960314BDA
:103B3000D3F840321A4613469B0013445B0007EE4D
:103B4000903AB8EE678A3B68D3E9003418462146BC
:103B5000FDF744FA07EE100A274BD3ED3A7A77EED9
:103B6000677AB4EEE78AF1EE10FA08DB214B0A22FD
:103B700083F848221F4B0022C3F8402233E01E4B3B
:103B800093F82531062B08D01B4B002283F83B21EC
:103B9000184B132283F8482225E07B68D3E90034D0
:103BA000154AC2E91C34144B012283F83321124B0D
:103BB000012283F83821104B002283F837210E4B65
:103BC000002283F834210C4B002283F836210A4B63
:103BD000002283F83521084B012283F83921064B56
:103BE000002283F83A2100BF0C37BD46BDEC028BA2
:103BF00090BD00BF485400200853002090B52DED23
:103C0000028B83B000AF78603960354BD3F8403217
:103C10001A4613469B0013445B0007EE903AB8EE39
:103C2000678A3B68D3E9003418462146FDF7D6F988
:103C300007EE100A2B4BD3ED387A37EE677A294B13
:103C4000B3F8063107EE903AF8EE677A77EE677AC6
:103C5000B4EEE78AF1EE10FA08DB214B0C2283F870
:103C600048221F4B0022C3F8402233E01D4B93F83B
:103C70002531052B08D01B4B002283F83B21184B24
:103C8000132283F8482225E07B68D3E90034154AE3
:103C9000C2E91C34134B012283F83321114B01225A
:103CA00083F838210F4B002283F837210D4B002277
:103CB00083F834210B4B002283F83621094B002274
:103CC00083F83521074B012283F83921054B002267
:103CD00083F83A2100BF0C37BD46BDEC028B90BD86
:103CE000485400200853002090B482B000AF7860A0
:103CF000284BD3F840321A4613469B0013445B000E
:103D000007EE903AB8EE677A234BB3F8063107EE28
:103D1000903AF8EE676A204BD3ED3A7A76EEE77A7E
:103D2000B4EEE77AF1EE10FA08DB1A4B0E2283F8B4
:103D30004822184B0022C3F8402225E07B68D3E9D3
:103D40000034154AC2E91C34134B012283F8332195
:103D5000114B012283F838210F4B002283F83721C1
:103D60000D4B002283F834210B4B002283F83621BF
:103D7000094B002283F83521074B002283F83921B3
:103D8000054B012283F83A2100BF0837BD4690BC9D
:103D9000704700BF485400200853002090B52DED17
:103DA000028B83B000AF78603960354BD3F8403276
:103DB0001A4613469B0013445B0007EE903AB8EE98
:103DC000678A3B68D3E9003418462146FDF706F9B7
:103DD00007EE100A2B4BD3ED387A37EE677A294B72
:103DE000B3F8063107EE903AF8EE677A77EE677A25
:103DF000B4EEE78AF1EE10FA08DB214B102283F8CB
:103E000048221F4B0022C3F8402233E01D4B93F899
:103E100025310A2B08D01B4B002283F83B21184B7D
:103E2000132283F8482225E07B68D3E90034154A41
:103E3000C2E91C34134B012283F83321114B0122B8
:103E400083F838210F4B002283F837210D4B0022D5
:103E500083F834210B4B002283F83621094B0022D2
:103E600083F83521074B012283F83921054B0022C5
:103E700083F83A2100BF0C37BD46BDEC028B90BDE4
:103E8000485400200853002090B482B000AF7860FE
:103E9000284BD3F840321A4613469B0013445B006C
:103EA00007EE903AB8EE677A234BB3F8063107EE87
:103EB000903AF8EE676A204BD3ED3A7A76EEE77ADD
:103EC000B4EEE77AF1EE10FA08DB1A4B122283F80F
:103ED0004822184B0022C3F8402225E07B68D3E932
:103EE0000034154AC2E91C34134B012283F83321F4
:103EF000114B012283F838210F4B002283F8372120
:103F00000D4B002283F834210B4B002283F836211D
:103F1000094B002283F83521074B002283F8392111
:103F2000054B012283F83A2100BF0837BD4690BCFB
:103F3000704700BF485400200853002080B400AFF1
:103F4000524B93F82531013B092B00F2998001A2D5
:103F500052F823F019400000334000004D400000AB
:103F600067400000B13F0000E53F0000FF3F000058
:103F7000CB3F0000973F00007D3F0000434B0022F5
:103F800083F83B21424B0F2283F84822404B00220A
:103F9000C3F8402274E03D4B012283F83B213C4BA7
:103FA0001B2283F848223A4B0022C3F8402267E0E4
:103FB000364B002283F83B21354B0B2283F84822F5
:103FC000334B0022C3F840225AE0304B012283F8E1
:103FD0003B212F4B052283F848222D4B0022C3F8AA
:103FE00040224DE0294B002283F83B21284B092237
:103FF00083F84822264B0022C3F8402240E0234B9E
:10400000002283F83B21224B162283F84822204BC2
:104010000022C3F8402233E01C4B002283F83B21EE
:104020001B4B072283F84822194B0022C3F8402279
:1040300026E0164B002283F83B21154B142283F80F
:104040004822134B0022C3F8402219E00F4B0122F3
:1040500083F83B210E4B022283F848220C4B0022AE
:10406000C3F840220CE0094B012283F83B21084BA6
:10407000182283F84822064B0022C3F8402200BFD2
:1040800000BFBD465DF8047B704700BF08530020A9
:104090004854002090B52DED028B83B000AF7860BE
:1040A0003960314BD3F840321A4613469B00134413
:1040B0005B0007EE903AB8EE678A7B68D3E900347C
:1040C00018462146FCF78AFF07EE100A274BD3ED6E
:1040D000387A77EE677AB4EEE78AF1EE10FA08DB09
:1040E000214B152283F848221F4B0022C3F840229F
:1040F00033E01E4B93F82531022B08D01B4B0022D6
:1041000083F83B21184B132283F8482225E03B68B3
:10411000D3E90034154AC2E91C34144B012283F858
:104120003321124B012283F83821104B002283F8EF
:1041300037210E4B002283F834210C4B002283F8E8
:1041400036210A4B002283F83521084B002283F8E0
:104150003921064B012283F83A2100BF0C37BD46B6
:10416000BDEC028B90BD00BF4854002008530020D6
:1041700090B52DED028B83B000AF78603960314B84
:10418000D3F840321A4613469B0013445B0007EEF7
:10419000903AB8EE678A7B68D3E900341846214626
:1041A000FCF71CFF07EE100A274BD3ED387A77EEA9
:1041B000677AB4EEE78AF1EE10FA08DB214B17229A
:1041C00083F848221F4B0022C3F8402233E01E4BE5
:1041D00093F82531072B08D01B4B002283F83B2195
:1041E000184B132283F8482225E03B68D3E90034BA
:1041F000154AC2E91C34144B012283F83321124BB7
:10420000012283F83821104B002283F837210E4B0E
:10421000002283F834210C4B002283F836210A4B0C
:10422000002283F83521084B002283F83921064B00
:10423000012283F83A2100BF0C37BD46BDEC028B4A
:1042400090BD00BF485400200853002090B587B0AF
:1042500000AFF860B9607A60414BD3F840321A463B
:1042600013469B0013445B0007EE903AF8EE677A22
:10427000C7ED057A3B4BD3ED387A97ED057AB4EE6E
:10428000E77AF1EE10FA0CDBFB681B78002B08D004
:10429000334B1A2283F84822314B0022C3F84022C4
:1042A0005AE0BB68D3E9003418462146FCF796FE75
:1042B00007EE100A2B4BD3ED387A37EE677A294B8D
:1042C000B3F8023107EE903AF8EE677A77EE677A44
:1042D00097ED057AB4EEE77AF1EE10FA08DB204BA1
:1042E000192283F848221E4B0022C3F8402233E0F3
:1042F0001C4B93F82531042B08D01A4B012283F86C
:104300003B21174B132283F8482225E07B68D3E931
:104310000034144AC2E91C34124B012283F83321C1
:10432000104B012283F838210E4B002283F83521EF
:104330000C4B002283F836210A4B002283F83421EB
:10434000084B002283F83721064B012283F83A21DB
:10435000044B002283F8392100BF1C37BD4690BDB5
:10436000485400200853002090B482B000AF786019
:10437000204BD3F840321A4613469B0013445B008F
:104380001A461D4BB3F802319A4208D3194B182232
:1043900083F84822174B0022C3F8402225E07B68AF
:1043A000D3E90034144AC2E91C34134B012283F8C8
:1043B0003321114B012283F838210F4B002283F85F
:1043C00035210D4B002283F836210B4B002283F858
:1043D0003421094B002283F83721074B012283F84F
:1043E0003A21054B002283F8392100BF0837BD462A
:1043F00090BC7047485400200853002090B52DED24
:10440000028B85B000AFF860B9607A60444BD3F896
:1044100040321A4613469B0013445B0007EE903A65
:10442000F8EE677A3F4BC3ED3B7A3E4B93ED3B7A18
:104430003C4BD3ED387AB4EEE77AF1EE10FA0CDBB0
:10444000FB681B78002B08D0354B1D2283F84822CF
:10445000334B0022C3F840225BE0324B93ED3B8AA2
:10446000BB68D3E9003418462146FCF7B7FD07EED8
:10447000100A2C4BD3ED387A37EE677A294BB3F814
:10448000023107EE903AF8EE677A77EE677AB4EE8B
:10449000E78AF1EE10FA08DB214B1C2283F8482250
:1044A0001F4B0022C3F8402233E01E4B93F8253106
:1044B000092B08D01B4B012283F83B21184B1322F8
:1044C00083F8482225E07B68D3E90034154AC2E925
:1044D0001C34144B012283F83321124B012283F840
:1044E0003821104B002283F835210E4B002283F82F
:1044F00036210C4B002283F834210A4B002283F82A
:104500003721084B012283F83A21064B002283F819
:10451000392100BF1437BD46BDEC028B90BD00BFF2
:10452000485400200853002080B584B002AF786062
:104530007B6800221A727B6801225A605D4B002260
:1045400083F86A205B4B0022DA665A4BDA6E594BCD
:1045500093F86A3019461046FEF700F802467B6869
:104560009A627B68544A5A627B689A6A7B685B6A83
:1045700019461046FEF716F84E4B2B2283F81421ED
:104580004C4B402283F815217B68986A00230193E5
:10459000002300930223494A1D21FEF74EF84FF4F1
:1045A000FA7005F0BFFF434B2A2283F830217B6865
:1045B000986A00230193012300930123404A1D219F
:1045C000FEF73BF803461A463A4B83F83021394B45
:1045D00093F83031002B10D17B68986A0123019346
:1045E000002300930123364A1D21FDF7F2FF01222B
:1045F00033493448FDF748FE03E02E4B002283F890
:104600002F212C4B2A2283F814212A4B93F82F3187
:1046100023F00103DAB2274B83F815217B68986AEF
:1046200000230193002300930223244A1D21FEF757
:1046300004F8204B0E2283F814211E4B012283F82C
:1046400015217B68986A00230193002300930223BD
:104650001A4A1D21FDF7F1FF164B5B2283F8142146
:10466000144B002283F815217B68986A002301937C
:10467000002300930223114A1D21FDF7DEFF0D4B9D
:104680002A2283F814210B4B192283F815217B6809
:10469000986A00230193002300930223074A1D21F7
:1046A000FDF7CBFF7B6801221A7200BF0837BD46B9
:1046B00080BD00BF08530020A08601001C540020CC
:1046C000385400203754002080B582B000AF7860A5
:1046D0007B6800221A727B6801225A60184B4FF0E7
:1046E000FF321A66164B00225A66154B1B6E0A22C1
:1046F00000211448FEF78CF902467B681A617B683A
:104700001B694FF4E1311846FEF758FC0C4B0122AF
:1047100083F868200A4B002283F869207B681869B7
:10472000074B93F86920064B93F868300821FEF791
:1047300051FC7B6801221A7200BF0837BD4680BD5C
:10474000085300206C53002080B500AFFEF7A4FF93
:1047500000BF80BD000000002DE9F04385B002AF2E
:10476000784BD3E92C01784BD3E900341A46234621
:10477000FCF7BAFB0346002B05D1734BD3E9003499
:10478000704AC2E92C346F4BD3F8A83021226F490C
:104790001846FEF733FC03461A466D4B83F82E216C
:1047A00021226A496A48FDF76FFD664BD3F8E42180
:1047B000674B93F82E31002B0CBF01230023DBB293
:1047C00019461046FEF754FE5E4B93F84932013B02
:1047D000032B00F2A18001A252F823F0ED47000064
:1047E000F7470000014800000B480000554B042229
:1047F00083F8492296E0534B042283F8492291E042
:10480000504B042283F849228CE0514B93F82E310F
:10481000002B40F086804E4B1B78162B76D14C4BEC
:104820005B78102B51D0202B6AD1464B032283F8A2
:104830004922474BDA78464B83F82521444B1A79B5
:10484000434B83F82621424B5A79414B83F8272169
:104850003F4B9A793E4B83F8282104223D493E483C
:10486000FDF712FD04223D493D48FDF70DFD0222F2
:104870003C493D48FDF708FD04223C493C48FDF712
:1048800003FD04223B493C48FDF7FEFC02223B4964
:104890003B48FDF7F9FC2E4B9A7E2D4B83F82921DE
:1048A0002B4BDA7E2A4B83F82A21294B1A7F284B7F
:1048B00083F82B21264B5A7F254B83F82C2102228B
:1048C00030493148FDF7E0FC25E0214B9B78002B77
:1048D00002D0012B07D00DE01A4B022283F84922A7
:1048E00003F086FC0BE0174B012283F8492203F00A
:1048F0007FFC04E0134B042283F8492200BF0AE046
:10490000104B042283F8492200BF04E00D4B04221F
:1049100083F8492205E004E00A4B042283F8492287
:1049200000E000BF0A4B93F82521074B93F8A03015
:104930009A422BD9044BD3E90634054AC2E92A34FA
:104940002AE000BF4854002008000020295300201E
:10495000085300200F530020E4530020125300207E
:10496000E8530020165300200A540020185300205A
:10497000EC5300201C530020F05300202053002053
:104980000C540020265300200E540020494BD3E93C
:104990000834494AC2E92A34474BD3E92A014FF087
:1049A00000024FF00003FCF7C7FA0346002B00F0AB
:1049B0001681424BD3E91E013E4BD3E902341A461D
:1049C0002346FCF791FA0346002B05D1394BD3E976
:1049D00002343A4AC2E91E34374B012283F82E21B1
:1049E000364BD3F890000023019301230093012359
:1049F000334A1D21FDF721FE03461A462E4B83F84C
:104A00002E212D4B93F82E31002B67D12B4BD3F851
:104A1000900001230193002300930623294A1D21BE
:104A2000FDF7D7FD062227492748FDF72DFC022276
:104A300025492648FDF728FC1F4B93F811211E4BF2
:104A400083F812211C4B93F810211B4B83F8132180
:104A500002221F491C48FDF717FC02221D491B4872
:104A6000FDF712FC144B93F81121134B83F812211C
:104A7000114B93F81021104B83F813210222144993
:104A80001448FDF701FC022213491048FDF7FCFB16
:104A9000094B93F81121084B83F81221064B93F828
:104AA0001021054B83F81321022209490A48FDF71A
:104AB000EBFB1FE0080000200853002048540020B2
:104AC00036540020CE530020C85300201854002034
:104AD0001A540020CA530020CC530020C24B00229D
:104AE000A3F8C020C04B0022A3F8C220BE4B002276
:104AF000A3F8C420BC4BB3F9C0309FEDB70B1846E8
:104B0000FEF7E0FD03461846FBF71CFF02460B4686
:104B1000FBF7CCFD03460C4618462146B0A3D3E96B
:104B20000023FBF779FF03460C46184621464FF059
:104B30000002AE4BFCF79AF803460C46AA4AC2E9BB
:104B40001E34A94BB3F9C2309FEDA30B1846FEF7F4
:104B5000B9FD03461846FBF7F5FE02460B46FBF788
:104B6000A5FD03460C46184621469DA3D3E9002324
:104B7000FBF752FF03460C46184621464FF0000251
:104B80009A4BFCF773F803460C46974AC2E9203467
:104B9000954BB3F9C4309FED900B1846FEF792FD8C
:104BA00003461846FBF7CEFE02460B46FBF77EFD9A
:104BB00003460C461846214689A3D3E90023FBF798
:104BC0002BFF03460C46184621464FF00002874B48
:104BD000FCF74CF803460C46834AC2E92234844B66
:104BE000D3E93C01834BD3E90A341A462346FCF748
:104BF0007BF90346002B05D17E4BD3E90A347C4A6E
:104C0000C2E93C347A4BD3F8E8301846FEF7F8FB9B
:104C100003461A46744B83F83D21754BD3E93401A2
:104C2000744BD3E90C341A462346FCF75DF903466E
:104C3000002B05D16F4BD3E90C346D4AC2E93434F3
:104C40006B4BD3F8C8301846FEF7DAFB03461A461A
:104C5000654B83F83C21644BD3F8E4301846FBF7EE
:104C600083FE644BD3E91A341A462346FBF7FEFF52
:104C700003460C46184621465E4BD3E91C341A46BF
:104C80002346FBF7C9FE03460C46574AC2E92C34BB
:104C9000554BD3F8DC301846FBF766FE554BD3E98D
:104CA0001E341A462346FBF7E1FF03460C4618461E
:104CB0002146504BD3E920341A462346FBF7ACFE7D
:104CC00003460C46484AC2E92E34474B93ED1E7BFF
:104CD000B0EE470AF0EE670A07F02AFD55EC104BDC
:104CE000414B93ED207BB0EE470AF0EE670A07F0E8
:104CF0001FFD53EC102B20462946FBF7D7FC03463B
:104D00000C461D462646384BD3E92201394BD3E9E0
:104D100022341A462346FBF7C7FC03460C4644ECF4
:104D2000173BB0EE470AF0EE670A07F001FD54ECBE
:104D3000103B1A46234628463146FBF7B7FC03468C
:104D40000C46294AC2E92A34294B5B7A002B02D04F
:104D5000274B00225A72264BDB6A7B607B681B68FC
:104D6000012B61D07B6800221A717B6801221A60D6
:104D70007A684FF000034FF00004C2E902347A6809
:104D80004FF000034FF00004C2E904347A684FF09A
:104D900000034FF00004C2E906347A684FF00003C4
:104DA0004FF00004C2E908347A684FF00003124C57
:104DB000C2E90A347B6801221A717A684FF0000355
:104DC0004FF00004C2E902347A684FF000034FF05C
:104DD000000413E0AFF3008000000000000000C0FA
:104DE00008AC1C5A643BCF3F0853002000408F4062
:104DF00048540020080000200000F03FC2E90434BD
:104E00007A684FF000034FF00004C2E906347A6874
:104E10004FF000034FF00004C2E908347A684FF005
:104E20000003A14CC2E90A347B68D3E90A349F4AE3
:104E3000C2E924347B68D3E902349C4AC2E92634AF
:104E40007B68D3E90434994AC2E912347B68D3E918
:104E50000634964AC2E914347B68D3E90834934A8D
:104E6000C2E91634914BD3E92601904BD3E92A3499
:104E70001A462346FBF71AFC03460C468B4AC2E946
:104E800026348A4BD3E9243418462146FCF75EF8D1
:104E90000346013B854A0933DB001344D3E9000193
:104EA000824BD3E926341A462346FBF7FFFB034621
:104EB0000C467E4AC2E928347C4BD3E92434184698
:104EC0002146FCF743F803465A1E784BD3E92A34AF
:104ED00076490932D2000A44C2E90034734BD3E95F
:104EE00024014FF00002724BFBF7FEFF0346002B3C
:104EF0000DD16E4BD3E924014FF000026A4BFBF752
:104F0000D5FB03460C46694AC2E924342AE0674AC5
:104F10004FF00003644CC2E92434644A4FF00003AC
:104F20004FF00004C2E92634604BD3E914015F4B13
:104F3000D3E916341A462346FBF7B8FB03460C4662
:104F40005A4AC2E91434594BD3E91201574BD3E9F9
:104F500014341A462346FBF7A9FB03460C46534A72
:104F6000C2E91234514BD3E926347A68C2E90234DB
:104F70004E4BD3E912347A68C2E904344B4BD3E97F
:104F800014347A68C2E90634484BD3E916347A6897
:104F9000C2E90834454BD3E924347A68C2E90A34BB
:104FA000424BD3E928014FF00002424BFBF75EFE73
:104FB00003460C463D4AC2E924343F4B93F8443241
:104FC000002B13D13C4B012283F844223A4B05229B
:104FD00083F84522354B012283F83221334B93F875
:104FE0002621324B83F8162100F0DABC324B93F8BD
:104FF0004532013B032B00F2A18401A252F823F0B9
:1050000011500000BD50000017510000C9530000AE
:10501000264BD3E92445254B93F829311846FBF755
:1050200091FC02460B4620462946FBF767FF0346E4
:10503000002B32D0204B032283F845221E4A4FF02A
:1050400000034FF00004C2E98E34184B002283F8AD
:105050003221164B002283F83121144B93F816317C
:105060001A46124B93F82631D31A104AC2F8F83078
:105070000E4BD3F8F8300D4A92F81621934203D91B
:105080000A4B0022C3F8F820084BD3F8F830DAB204
:10509000094B83F8462200F083BC044B012283F8BD
:1050A000312100F07DBC00BF0000F03F085300201C
:1050B000000008400000104048540020A74BD3E9EE
:1050C0002445A64B93F829311846FBF73BFC0246D2
:1050D0000B4620462946FBF725FF0346002B14D03C
:1050E0009F4B042283F845229C4B002283F83221F7
:1050F0009A4B002283F83121994A4FF000034FF078
:105100000004C2E98E3400F04BBC944B012283F8BA
:10511000322100F045BC914B93F816218F4B93F848
:1051200026319A4210D18E4A4FF000034FF000040E
:10513000C2E98E348A4B022283F84522874B012232
:1051400083F8322100F02CBC844BD3E92445834BF7
:1051500093F829311846FBF7F5FB02460B4620462B
:105160002946FBF7DFFE0346002B14D07C4B0422BC
:1051700083F84522794B002283F83221774B0022B5
:1051800083F83121764A4FF000034FF00004C2E962
:105190008E3400F005BC724BD3E98E456F4B93F80B
:1051A0002A311846FBF7CEFB02460B46204629461D
:1051B000FBF7B8FE0346002B31D0694B032283F87E
:1051C0004522674A4FF000034FF00004C2E98E34D5
:1051D000624B002283F83221604B002283F8312198
:1051E0005E4B93F816311A465C4B93F82631D31A6E
:1051F0005A4AC2F8F830594BD3F8F830574A92F867
:105200001621934203D9554B0022C3F8F820534B83
:10521000D3F8F830DAB2524B83F84622C0E34F4B52
:1052200093F82C31002B0ED14D4B93F84632002BC6
:1052300004D14A4B002283F82E2147E0474BFF223E
:1052400083F82E2142E0454B93F82C31002B09D0F6
:10525000434B93F84622414B93F82C31B2FBF3F3C6
:10526000DBB200E0FF233D4A82F82E313C4B93F83D
:1052700046223A4B93F82E11384B93F82C3111FB00
:1052800003F3DBB2D31ADAB2344B83F82D21334B5C
:1052900093F82D31002B19D0304B93F82D311A464D
:1052A0002E4B93F82C315B08DBB219462B4B93F84D
:1052B0002C3103F001030B449A4207DB274B93F890
:1052C0002E310133DAB2254B83F82E21234B93F88C
:1052D0002E311846FBF726FB214BD3E98E341A46B4
:1052E0002346FBF799FB03460C4644EC173BB0EE14
:1052F000470AF0EE670A03F033FBB0EE407AF0EEB7
:10530000607A164B83ED2A7B144BD3E92A014FF0C8
:105310000002144BFBF7F2FD0346002B24D00F4B89
:10532000D3E92A014FF000024FF00003FBF7FAFD2A
:105330000346002B0CD0094BD3E92A3418462146EA
:10534000FBF72CFE0346DAB2044B83F82E210FE064
:10535000024B002283F82E210AE000BF08530020F0
:1053600048540020000070409F4BFF2283F82E21FC
:105370009D4B93F816311A469B4B93F82E31D31A56
:10538000994AC2F8F830984BD3F8F830964A92F818
:105390001621934203D9944B0022C3F8F820924B74
:1053A000D3F8F830DAB2904B83F816218F4BD3E95B
:1053B0008E018BA3D3E90023FBF778F903460C4653
:1053C0008A4AC2E98E34EBE2874B93F81621864B6A
:1053D00093F828319A420FD1844A4FF000034FF0DE
:1053E0000004C2E98E34814B012283F845227E4BB2
:1053F000012283F83121D3E27B4BD3E924457A4B58
:1054000093F829311846FBF79DFA02460B462046D1
:105410002946FBF773FD0346002B31D0734B032263
:1054200083F84522714A4FF000034FF00004C2E9AF
:105430008E346D4B002283F832216B4B002283F8AF
:105440003121694B93F816311A46674B93F8263190
:10545000D31A654AC2F8F830634BD3F8F830624A81
:1054600092F81621934203D95F4B0022C3F8F8202B
:105470005D4BD3F8F830DAB25C4B83F846228FE20A
:105480005A4BD3E98E45584B93F82A311846FBF70F
:1054900059FA02460B4620462946FBF743FD0346D0
:1054A000002B13D0514B042283F845224E4B00228F
:1054B00083F832214C4B002283F831214B4A4FF0C4
:1054C00000034FF00004C2E98E3469E2474BD3E990
:1054D0008E45454B93F82A311846FBF723FA0246CE
:1054E0000B4620462946FBF7C1FB03460C4644EC1D
:1054F000173BB0EE470AF0EE670A03F031FAB0EE60
:10550000407AF0EE607A384B83ED2A7B364BD3E954
:105510002A014FF00002364BFBF7F0FC0346002B4C
:105520001DD0314BD3E92A014FF000024FF00003A8
:10553000FBF7F8FC0346002B0CD02B4BD3E92A34A5
:1055400018462146FBF72AFD0346DAB2264B83F8BC
:105550002E2108E0244B002283F82E2103E0224B69
:10556000FF2283F82E21204B93F82B31013B214A57
:10557000DB001344D3E900341B4AC2E92A341A4B36
:10558000D3E92A45184B93F82E311846FBF7CAF990
:1055900002460B4620462946FBF73EFA03460C46D8
:1055A00044EC173BB0EE470AF0EE670A03F0D8F977
:1055B00054EC103B18462146FBF7C8FC02460A4B48
:1055C000C3F8F420084BD3F8F430FF2B14DC064B5F
:1055D000D3F8F430DAB2044B83F82D2110E000BF89
:1055E000FCA9F1D24D62503F0853002048540020DE
:1055F00000007040C0F50000B44BFF2283F82D215D
:10560000B34BD3E98E45B14B93F82A311846FBF7DB
:1056100089F902460B4620462946FBF727FB03463D
:105620000C4644EC173BB0EE470AF0EE670A03F075
:1056300097F9B0EE407AF0EE607AA44B83ED267BCA
:10564000A24BD3E926014FF00002A24BFBF756FC18
:105650000346002B1DD09D4BD3E926014FF00002DD
:105660004FF00003FBF75EFC0346002B0CD0974B7A
:10567000D3E9263418462146FBF790FC0346DAB2FC
:10568000924B83F82E2108E0904B002283F82E21C4
:1056900003E08E4BFF2283F82E218C4BD3E92A01A5
:1056A0004FF000028C4BFAF7FFFF03460C462546ED
:1056B0001C46864B93F82E311846FBF733F9024609
:1056C0000B4620462946FBF7A7F903460C4644EC57
:1056D000173BB0EE470AF0EE670A03F041F954ECCD
:1056E000103B18462146FBF731FC0246774BC3F8C6
:1056F000F420764BD3F8F430FF2B07DC734BD3F850
:10570000F430DAB2714B83F82E2103E06F4BFF22A5
:1057100083F82E216D4B93F82E3101331A466B4BD3
:10572000C3F8F020694BD3F8F430FF2B07DC674B4C
:10573000D3F8F430DAB2654B83F82E2103E0634BE3
:10574000FF2283F82E21614B93F82E310133FF2B7A
:1057500003D95E4BFF22C3F8F0205C4B93F82D2158
:105760005A4BD3F8F030DBB2B2FBF3F3DAB2574B5B
:1057700083F82E21554B93F82D21544B93F82E117D
:10578000524BD3F8F030DBB211FB03F3DBB2D31A88
:10579000DAB24E4B83F82D214C4B93F82D31002B70
:1057A0001BD04A4B93F82D311A46484BD3F8F030B2
:1057B000DBB25B08DBB21946444BD3F8F030DBB206
:1057C00003F001030B449A4207DB404B93F82E3160
:1057D0000133DAB23D4B83F82E213C4B93F828215C
:1057E0003A4B93F82631D31ADBB21846FBF79AF8F6
:1057F00080468946394BD3E92445344B93F8293107
:105800001846FBF78FF802460B4620462946FAF762
:105810004BFF03460C461A46234640464946FBF7D3
:1058200025FA03460C4618462146284BD3E9243472
:105830001A462346FBF7F0F803460C4625461C465D
:10584000224B93F82E311846FBF76CF802460B46B4
:1058500020462946FBF7E0F803460C4644EC173B8C
:10586000B0EE470AF0EE670A03F07AF8B0EE407A3D
:10587000F0EE607A154B83ED2A7B144BD3E92A01B5
:105880004FF00002134BFBF739FB0346002B27D0E8
:105890000E4BD3E92A014FF000024FF00003FBF753
:1058A00041FB0346002B0CD0084BD3E92A341846A1
:1058B0002146FBF773FB0346DAB2044B83F82E2133
:1058C00012E0024B002283F82E210DE00853002045
:1058D00048540020000070400000F03F0800002005
:1058E000C14BFF2283F82E21BF4B93F82E311A466D
:1058F000BD4B93F8263113441A46BB4BC3F8F42032
:10590000B94BD3F8F430FF2B03D9B74BFF22C3F8C0
:10591000F420B54BD3F8F430DAB2B34B83F8162148
:10592000B24BD3E98E01AEA3D3E90023FAF7BEFE52
:1059300003460C46AD4AC2E98E3431E0AB4B03223C
:1059400083F84522A94A4FF000034FF00004C2E952
:105950008E34A54B002283F83221A34B002283F81A
:105960003121A14B93F816311A469F4B93F82631FB
:10597000D31A9D4AC2F8F8309B4BD3F8F8309A4AB4
:1059800092F81621934203D9974B0022C3F8F820CE
:10599000954BD3F8F830DAB2944B83F8462200BF27
:1059A000914B93F82531052B03D94FF00000904916
:1059B00003E04FF000004FF000018E4BD3E9263496
:1059C0001A462346FBF7B8FA0346002B14D0894B3E
:1059D000D3E90E45844B93F816311846FAF7A2FF27
:1059E00002460B4620462946FBF740F903460C4683
:1059F0007D4AC2E92A3413E07E4BD3E910457A4B45
:105A000093F826311846FAF78DFF02460B462046DA
:105A10002946FBF72BF903460C46734AC2E92A34A0
:105A2000724BD3F84032B3F1FF3F06D06F4BD3F83F
:105A3000403201336D4AC2F840326C4B93F8473222
:105A4000002B09D1694B012283F84722674B1322AF
:105A500083F8482200F01ABC644B93F84832013BAB
:105A60001B2B00F20F8401A252F823F0DD5A000034
:105A7000595B0000655B0000055C0000815C000074
:105A80008D5C0000095D0000135D00008F5D00006B
:105A9000995D0000155E00001F5E00009B5E000027
:105AA000A35E0000375F0000415F0000BD5F0000A3
:105AB000C55F0000416000004760000051600000C9
:105AC000CD600000D7600000536100005F610000FE
:105AD000DB610000E361000009620000434BD3F882
:105AE00040321A4613469B0013445B001A463E4B55
:105AF000B3F804319A4208D33C4B022283F848227F
:105B00003A4B0022C3F84022C0E3374BD3E92C3490
:105B1000354AC2E91C34344B012283F83321324B1D
:105B2000012283F83821304B002283F837212E4B95
:105B3000002283F834212C4B002283F836212A4B93
:105B4000002283F83521284B012283F83921264B86
:105B5000002283F83A2199E3274A28492848FDF78B
:105B600055FE93E3214BD3F840321A4613469B006F
:105B700013445B0007EE903AB8EE677A1A4BD3ED08
:105B80003A7AB4EEE77AF1EE10FA08DB174B01220D
:105B900083F84822154B0022C3F8402276E3124BCB
:105BA000002283F83321104B012283F838210E4B59
:105BB000002283F837210C4B002283F83A210A4B4C
:105BC000002283F83621084B002283F83421064B4B
:105BD000002283F83921044B012283F8352155E353
:105BE000FCA9F1D24D62503F0853002048540020D8
:105BF0000000F03F08000020B05300204454002073
:105C0000B8530020B54BD3F840321A4613469B00D8
:105C100013445B001A46B24BB3F804319A4208D3DE
:105C2000AE4B052283F84822AC4B0022C3F8402239
:105C30002CE3AB4BD3E92C34A94AC2E91C34A84B62
:105C4000012283F83321A64B012283F83821A44B8B
:105C5000002283F83721A24B002283F83421A04B85
:105C6000002283F836219E4B002283F835219C4B7D
:105C7000012283F839219A4B002283F83A2105E367
:105C8000984A99499948FDF74FFEFFE2934BD3F8A4
:105C900040321A4613469B0013445B0007EE903ACD
:105CA000B8EE677A8E4BD3ED3A7AB4EEE77AF1EE3E
:105CB00010FA08DB894B042283F84822874B002224
:105CC000C3F84022E2E2864B002283F83321844B62
:105CD000012283F83821824B002283F83721804B40
:105CE000002283F83A217E4B002283F836217C4B38
:105CF000002283F834217A4B002283F83921784B33
:105D0000012283F83521C1E276497848FDF79AFEF1
:105D1000BCE2724BD3F840321A4613469B00134440
:105D20005B0007EE903AB8EE677A6D4BD3ED3A7AA6
